:020000040000fa
:080000000002040000000000f2
:020000040000fa
:100008002e0800002e0800002e0800002e08000010
:100018002e0800002e0800002e0800002e08000000
:100028002e0800002e0800002e0800009a0200008a
:10003800a27d00002e0800002e0800001a03000010
:100048002e0800002e0800002e080000c60300003d
:100058002e0800002e0800002e0800002e080000c0
:100068002e0800002e0800002e0800002e080000b0
:100078002e0800002e0800002e0800002e080000a0
:100088002e0800002e0800002e0800002e08000090
:100098002e0800002e0800002e0800002e08000080
:1000a8002e0800002e0800002e0800002e08000070
:1000b8002e0800002e0800002e0800002e08000060
:1000c8002e0800002e0800002e0800002e08000050
:1000d8002e0800002e0800002e0800002e08000040
:1000e8002e0800002e0800002e0800002e08000030
:1000f8002e0800002e0800002e0800002e08000020
:100108002e0800002e0800002e0800002e0800000f
:100118002e0800002e0800002e0800002e080000ff
:100128002e0800002e0800002e0800002e080000ef
:100138002e0800002e0800002e0800002e080000df
:100148002e0800002e0800002e0800002e080000cf
:100158002e0800002e0800002e0800002e080000bf
:100168002e0800002e0800002e0800002e080000af
:100178002e0800002e0800002e0800002e0800009f
:100188002e0800002e0800002e0800002e0800008f
:100198002e0800002e0800002e0800002e0800007f
:1001a8002e0800002e0800002e0800002e0800006f
:1001b8002e0800002e0800002e0800002e0800005f
:1001c8002e0800002e0800002e0800002e0800004f
:1001d8002e0800002e0800002e0800002e0800003f
:1001e8002e0800002e0800002e0800002e0800002f
:0801f8002e0800002e08000093
:020000040000fa
:100208002e0800002e0800002e0800002e0800000e
:100218002e0800002e0800002e0800002e080000fe
:100228002e0800002e0800002e0800009a02000088
:10023800a27d00002e0800002e0800001a0300000e
:100248002e0800002e0800002e080000c60300003b
:100258002e0800002e0800002e0800002e080000be
:100268002e0800002e0800002e0800002e080000ae
:100278002e0800002e0800002e0800002e0800009e
:100288002e0800002e0800002e0800002e0800008e
:100298002e0800002e0800002e0800002e0800007e
:1002a8002e0800002e0800002e0800002e0800006e
:1002b8002e0800002e0800002e0800002e0800005e
:1002c8002e0800002e0800002e0800002e0800004e
:1002d8002e0800002e0800002e0800002e0800003e
:1002e8002e0800002e0800002e0800002e0800002e
:1002f8002e0800002e0800002e0800002e0800001e
:100308002e0800002e0800002e0800002e0800000d
:100318002e0800002e0800002e0800002e080000fd
:100328002e0800002e0800002e0800002e080000ed
:100338002e0800002e0800002e0800002e080000dd
:100348002e0800002e0800002e0800002e080000cd
:100358002e0800002e0800002e0800002e080000bd
:100368002e0800002e0800002e0800002e080000ad
:100378002e0800002e0800002e0800002e0800009d
:100388002e0800002e0800002e0800002e0800008d
:100398002e0800002e0800002e0800002e0800007d
:1003a8002e0800002e0800002e0800002e0800006d
:1003b8002e0800002e0800002e0800002e0800005d
:1003c8002e0800002e0800002e0800002e0800004d
:1003d8002e0800002e0800002e0800002e0800003d
:1003e8002e0800002e0800002e0800002e0800002d
:0803f8002e0800002e08000091
:020000040000fa
:10040000cfde20000ebf27000e0188000000000094
:10041000000020000000e000020032000001200087
:10042000200288000c000700c0e727000100200020
:1004300011000700000020000000e0000200320070
:100440000000020000000000bc04020000000000e8
:100450000040da000000fe004440a90020332000e4
:100460000000e0000300320000002000a00188002e
:100470004440a80000000600910188008000780038
:100480000000eb0015003700e280400032a0b4000d
:100490009101ba00e280400032a0b4009102ba009b
:1004a000e280400032a0b4000002eb00472bde00e7
:1004b000f507b200602ce10004003a000059eb009f
:1004c0008301e900fdff3e00040037006128e100e0
:1004d000010032000082eb00040007001101ba00a5
:1004e0000200e000e8ff3a00000006003159ba00bf
:1004f0008301e9000c0032002159ba008301e900b0
:10050000080032000400e00003003a00e2804000ee
:1005100032a0b400f5ff370011d9ba008301e90019
:10052000faff3a008100e800e180400032a0b40008
:1005300000000600809fbe00821f78000000fa00c5
:100540008460a90005e1a900c04080000000e80027
:10055000c0408800c1408000803e2000808f500055
:100560002e003a002116800000002200008060006a
:1005700000f0a7000000ea000000e9004f00de00e4
:10058000004078000080fb00610060004d00dd004d
:1005900022168000f1ff2d00810061000100700033
:1005a00020168800f04080000000e800f04088003d
:1005b000f1408000c0032000808f500004003a000a
:1005c000004180000000e800004188001e28ef0084
:1005d00001418000c0032000808f500004003a00d9
:1005e000104180000000e800104188002028ef0042
:1005f00010418000ec0f500007003a0001418000dc
:10060000c0032000808f500003003a002228ef0032
:100610002028ef001e28ef001828ef000021ef002f
:1006200005e1a8000080fa004f0178004f00be00ed
:10063000004006003600f800809fbe00829fbe008a
:10064000849fbe00869fbe000000fa0084e0a900df
:1006500011e1a90060418000e10f500013003a0051
:1006600021438000701a2600808f500004003c0057
:100670001100200060d02700753a07000300370002
:100680001100200060d02700713a0700204380004d
:100690000000e90020438800204380000000e000c3
:1006a00002003a0000352c002043880020418000e1
:1006b000e10f50000300320080418000e10f500044
:1006c00013003a0021438000701a2600808f5000ea
:1006d00004003c008000eb0060d027005c3a07007b
:1006e000030037008000eb0060d02700583a070075
:1006f000204380000000e900204388002043800060
:100700000000e00002003a0000352c002043880081
:1007100040418000e10f500013003a002143800067
:10072000701a2600808f500004003c002100200039
:1007300060d02700463a0700030037002100200060
:1007400060d02700423a0700204380000000e90003
:1007500020438800204380000000e00002003a00af
:1007600000352c00204388000621ef0011e1a8008d
:100770000080fa004f03be004f02be004f01be00d2
:100780004f00be003600f900004006003600f800b9
:10079000809fbe00829fbe00849fbe00869fbe00d9
:1007a0000000fa0010118000620060000000e0000c
:1007b000010032002222a9003011800000407800a0
:1007c0002ae8b700a18220009140780030c6b3002b
:1007d00080cf500009003a0020fa2700832c070040
:1007e000604180000000e00003003a00100020009b
:1007f00060418800010037002c28ef00a182200012
:100800009140780040c6b30080cf500002003a000b
:100810001000200080418800a182200091407800d3
:1008200010c6b30080cf500007003a00100020002f
:10083000304188002828ef00da22a900d5a2a900bb
:1008400040d52800692c0700a18220009140780043
:1008500010c3b30080cf500007003a001000200002
:10086000404188002628ef002c28ef003028ef00b8
:10087000da22a800d5a2a800a18220009140780029
:1008800030c3b30080cf500009003a0010002000b0
:10089000404188002628ef002c28ef003028ef0088
:1008a000da22a800d5a2a800c0d528004f2c070046
:1008b000a18220009140780050c3b30080cf500047
:1008c00009003a0010002000404188002628ef006f
:1008d0002c28ef003028ef00da22a800d5a2a800cb
:1008e00040d62800412c0700a182200091407800ca
:1008f00060c3b30080cf500009003a001000200010
:10090000404188002628ef002c28ef003028ef0017
:10091000da22a800d5a2a800f0d62800332c0700c0
:10092000a18220009140780070c3b30080cf5000b6
:1009300009003a0010002000404188002628ef00fe
:100940002c28ef003028ef00da22a800d5a2a8005a
:10095000a0d72800252c07008560a9000080fa0098
:100960004f03be004f02be004f01be004f00be004d
:100970003600f900004006000000fa00503d070074
:10098000cc00070020d82800182c07001d01070004
:10099000f200070006010700970007001d3b070053
:1009a000bb3b07000e3b07000040eb002b3b070062
:1009b0007040880010c0b300283b070080408800ca
:1009c0004104200020c0b300393b070020c0b30021
:1009d000223b07004040880030c0b3001f3b0700a7
:1009e0006040880051c42a0050c0b300303b07006b
:1009f00050c0b300193b0700b04088000200370028
:100a0000c0d82800f92b0700893507000004e00052
:100a1000fbff32005304070062c8bf000080fb00e8
:100a200022fa27008000780000d02700082a07005b
:100a300000408800004080000000e00006003a000e
:100a4000100020009041880071d9280020fa27006a
:100a50007b1207001040880040062000052c07008c
:100a600090d92800e12b07000100370000000000aa
:100a700060418000e10f50005a003a009041800030
:100a8000e10f500005003a0020fa2700d72b07009d
:100a90003228ef0001003700000000008041800094
:100aa000e10f50000300320020418000e10f5000b0
:100ab0000d003a0020fa2700f12a070000408800c4
:100ac000004080000000e0000700320062c8bf0064
:100ad0000080fb0022fa27008000780000d0270069
:100ae000db29070000408800004080000000e00093
:100af00036003a0020418000e10f50000300320030
:100b000080418000e10f500008003a0020fa2700e1
:100b1000b62b070071d9280020fa270048120700d9
:100b2000104088003028ef002428ef00104080009b
:100b30000000e00016003a00ffff37001040800080
:100b4000800178000202200011002000e0fc270054
:100b5000cc17070000000000401680006100600014
:100b60000000e000fcff320001022000e0fc270052
:100b7000313b0700604180000000e00009003200c6
:100b800080418000e10f5000060032000100370074
:100b90000000000010408000a81707000000e000df
:100ba000e6ff320010408000a41707000000e000bc
:100bb0000200320010002000204188001040800018
:100bc000220f07007d3b07000200370040da2800b3
:100bd000862b0700604180000000e000aeff3a0075
:100be00000000000604180000000e0009fff3a002c
:100bf0003028ef009eff37000000fa004382a90072
:100c00004362a9004342a9004322a9004302a8006d
:100c100042e2a90042c2a90042a2a800101280002c
:100c20000020a0000030a1000040a00010128800a9
:100c3000101280000000a0000010a0001012880018
:100c400040c2a90041e2a80041a2a9004022a90097
:100c50004002a9006382a9006362a9006342a9005f
:100c60006322a9006302a80062e2a90062c2a9008f
:100c700062a2a800101380000020a0000030a10094
:100c80000040a00010138800101380000000a00096
:100c90000010a0001013880060c2a90061e2a80043
:100ca00061a2a9006022a9006002a9000080fa00e8
:100cb000000006000000fa0040002000303a8800e2
:100cc000203a80000060a1000070a100203a880056
:100cd000213a800000fe2f0000806000203a88004a
:100ce0004827ef0040a7a90032002000800720001d
:100cf000a1092000337420008049780081497800e0
:100d00008249780012002000600420007105200054
:100d10002374200080497800814978008249780056
:100d200000000000113a8000000027008080600071
:100d300000002300808f5000faff3a0000000000fe
:100d4000113a800000022000008060000000e000f6
:100d5000fbff32000080fa00000006000000fa00ed
:100d600005e1a9000421a90004c1a9002008800010
:100d70000040a1000050a000200888000021ef00e2
:100d8000400a2000100888002005800000c0a00054
:100d900000d0a10000e0a100200588008460a90027
:100da0009460a80005e1a8000080fa000000060099
:100db0000000fa0011e1a9001021a90010c1a9004a
:100dc000800880000040a0000050a000800888003b
:100dd0000621ef00007d20006008880030058000bb
:100de00000c0a00000d0a10000e0a00030058800f5
:100df00084e0a90094e0a80011e1a8000080fa00b6
:100e0000000006000000fa0070a7a90021e2a90076
:100e100021a2a9002182a9002162a900001180005d
:100e20000080a1000090a1000011880020e2a9002c
:100e300020c2a90020a2a9002082a9002062a80047
:100e4000001180000010a1000020a1000011880006
:100e50002002a900200120004011880023e2a900ff
:100e600023c2a90023a2a9002362a9002342a9004a
:100e70002322a9002302a900101180000060a10014
:100e80000070a1001011880022a2a9002282a900ee
:100e90002262a9002242a9002222a9002202a9005e
:100ea00000402400900588008580a9009580a90055
:100eb0008560a9009560a80021e2a8002342a8004f
:100ec0000080fa00000006000a00fa00889fbe00b9
:100ed000400798004e009000104090003800070036
:100ee000c004dd00080020004e0090001040780093
:100ef000330007000001be004818dd00c810de0006
:100f0000810070004810dd0008044000898448001a
:100f10004e0090002040900029000700080040008b
:100f20008980480020079800310798000000eb00f6
:100f3000100798001c0037000000eb00000f78003d
:100f4000130037002e009000610060000040780020
:100f50000004e00005003200d4a2a8000000eb006d
:100f600010079800d4a2a90002003700d4a2a8005c
:100f7000d4a2a9002e009000be0090008180d10074
:100f80000080d30020079800310798001e0fe8006a
:100f90001e007800f70f5000eaff34001e0090009a
:100fa0000000e800100798001e009000e70f5000b6
:100fb000e1ff34004f04be000080fa00000006008c
:100fc0000200fa00004f78001e80fb004400de00a3
:100fd00000407800804078001e80fb004400dd0067
:100fe0000040780000c07000004f78009e80fb0039
:100ff000c00c2000008060004280de00804078004d
:101000001e81fb0030032000000061004200dd0073
:101010000040780000c07000004f78009e80fb0008
:10102000a00a2000008060000080d100804078008d
:101030001e81fb0050052000000061000000400000
:101040000040780000c07000004f78001e80fb0058
:101050008000eb000080fa00000006000040da008b
:101060000000fe00b10278000009eb000002e90078
:1010700007003400b10178000328e10002003c00c1
:1010800083027800040950000402e900f9ff3c00e3
:101090000500780000000600889fbe008a9fbe0001
:1010a0008c9fbe008e1f78004400f800070f2000c0
:1010b000270288003400f800811f78000f077800ad
:1010c00007f02f000338e1000400320027028000ff
:1010d0004700b30027028800a30188001900200000
:1010e000804cdd00130020000204780080067800a8
:1010f0008904d100424edd00010578000302e900b9
:1011000004800800170000008a0546004218dd0030
:101110000902e9000480080010000000000000003f
:101120004620c3003b025200df35c10008044000e6
:101130001381c200ab825200264dc5003e85c4001b
:10114000bb00cd00bb80cd003a00ca002a80ca0097
:101150000700c9000580c900ba00cd00ba80cd00e3
:101160000a054600020478008301d0008d06e900dc
:10117000dfff3c008e0778004f0078003400f90054
:101180004400f9004f0778004f06be004f05be002f
:101190004f04be00000006004600f8005000f800b2
:1011a00002202000320288000200280013002000e4
:1011b0008019dd0002817100820288000100780040
:1011c0000101780026002000470020008301e9008b
:1011d00003800800070000000110e1000400340053
:1011e0001102be0092087800e2307b000489be0044
:1011f00087804000121978005000f9004600f9007d
:1012000000000600821f7800849fbe008a1f7800bd
:101210004400f800040f2000240288000105780033
:101220000601c3000080e900008008000300000000
:10123000000000000505f0000401f1003200cd00bf
:101240000505f0001001f1003200cd004400f90066
:101250004f0578004f02be004f00780000000600e6
:101260006022b800060220000000d0008180d20079
:101270000482d2008582d2000000a0000202520047
:1012800083825a00030031000202420083824a0036
:101290000000a1000603e900f3ff3a000000060089
:1012a000800078001104b100030035009101b10005
:1012b00001003c000050a000000006008000780003
:1012c0001106b100030035009101b10001003c009e
:1012d0000050a100000006008001780002003700e5
:1012e000815978000201e9000200e000fcff3a00a9
:1012f00000000600889fbe00d0f883000000e000d8
:101300000100320000000100e0f883000000e0006e
:10131000010032000000010080f127001004e0000d
:1013200022003a00e0ff8300f1ff830088002000e4
:10133000d2602600930120005c000700f2352f00e8
:10134000e3c6230000004100818049000804e90051
:10135000f7ff3a00e8f127000908200088844400dc
:10136000d26026009301200050000700f2352f00c4
:10137000e3c62300000041008180490000acbe00ac
:10138000890f5400f6ff3a00e0ff8b00f1ff8b005d
:10139000f0fc830001fd8300f0f88b0001f98b0065
:1013a00011c0b30080f1270001487800d260260008
:1013b00093012000e0ff8300f1ff83003b00070062
:1013c000f2352f00e3c6230000024100818249006c
:1013d000e4ff8b00f5ff8b00e0f1270010007800a0
:1013e0007f0160004211dd0020f227000201400071
:1013f0001200be00f0f88b0001f98b000489be00da
:101400000100780000f0a1004f04be0000000600bb
:10141000020037000304e0000600320000017800fb
:1014200002007800b041780081cf5100f9ff3a0006
:10143000010037000001eb00020078000000060008
:1014400000017800b1417800035978000304e000fe
:10145000fcff3a00000006008000780001017800df
:101460003104e000fdff3a000000510000000600da
:101470008001780002003700845978000201e900f9
:101480000200e00006003200314278000404e0006f
:10149000f9ff3a00020037008059eb000201e90031
:1014a0000200e000fcff3a0000000600020ab9005a
:1014b000001bb9000200b800810042008100430017
:0414c0000000060022
:020000040000fa
:1015000001000000000000000100000000000000d9
:1015100001000000000000000100000000000000c9
:1015200001000000000000000100000000000000b9
:1015300001000000000000000100000000000000a9
:101540000100000000000000010000000000000099
:101550000100000000000000010000000000000089
:10156000010000000000000000000000000000007a
:101570000100000000000000010000000000000069
:101580000100000000000000010000000000000059
:10159000010000000000000000000000000000004a
:1015a000000000000000000001000000000000003a
:1015b0000100000000000000010000000000000029
:1015c000010000000000000000000000000000001a
:1015d000000000000000000000000000000000000b
:1015e00001000000000000000100000000000000f9
:1015f00001000000000000000000000000000000ea
:1016000000000000000000000000000000000000da
:1016100000000000000000000100000000000000c9
:1016200001000000000000000000000000000000b9
:1016300000000000000000000000000000000000aa
:10164000000000000000000000000000000000009a
:101650000100000000000000000000000000000089
:10166000000000000000000000000000000000007a
:10167000000000000000000000000000000000006a
:10168000000000000000000000000000000000005a
:10169000000000000000000000000000000000004a
:1016a000000000000000000000000000000000003a
:1016b000000000000000000000000000000000002a
:1016c0000100000000000000010000000000000018
:1016d0000100000000000000010000000000000008
:1016e00001000000000000000100000000000000f8
:1016f00001000000000000000100000000000000e8
:1017000001000000000000000100000000000000d7
:1017100001000000000000000100000000000000c7
:1017200001000000000000000000000000000000b8
:1017300001000000000000000100000000000000a7
:101740000100000000000000010000000000000097
:101750000100000000000000000000000000000088
:101760000000000000000000010000000000000078
:101770000100000000000000010000000000000067
:101780000100000000000000000000000000000058
:101790000000000000000000000000000000000049
:1017a0000100000000000000010000000000000037
:1017b0000100000000000000000000000000000028
:1017c0000000000000000000000000000000000019
:1017d0000000000000000000010000000000000008
:1017e00001000000000000000000000000000000f8
:1017f00000000000000000000000000000000000e9
:1018000000000000000000000000000000000000d8
:1018100001000000000000000000000000000000c7
:1018200000000000000000000000000000000000b8
:1018300000000000000000000000000000000000a8
:101840000000000000000000000000000000000098
:101850000000000000000000000000000000000088
:101860000000000000000000000000000000000078
:101870000000000000000000000000000000000068
:10188000070000000000000007000000000000004a
:10189000070000000000000007000000000000003a
:1018a000070000000000000007000000000000002a
:1018b000070000000000000007000000000000001a
:1018c000070000000000000007000000000000000a
:1018d000ff7f000000000000627f000074f3000042
:1018e0008a7d000007e700007d7a0000d8da00005a
:1018f0004276000004cf0000e3700000a9c300009e
:101900006e6a0000e3b80000f2620000ccae000096
:10191000825a00007ea50000345100000e9d000098
:101920001d47000092950000573c00001d8f0000ed
:10193000fc300000be8900002825000083850000df
:10194000f9180000768200008c0c00009e800000d8
:10195000000000000080000074f300009e80000082
:1019600007e7000076820000d8da000083850000d7
:1019700004cf0000be890000a9c300001d8f000035
:10198000e3b8000092950000ccae00000e9d000070
:101990007da500007da500000e9d0000ccae0000de
:1019a00092950000e3b800001d8f0000a9c300005d
:1019b000be89000004cf000083850000d8da000053
:1019c0007682000007e700009e80000074f30000ac
:1019d00000950000000000000000000001f9000078
:1019e0000000000000000000088700000400000064
:1019f0000000000009af000000000000010000002e
:101a00000a1b000000000000010000000cc30000e1
:101a100000000000000000000daf00000200000008
:101a20000000000010ff00000000000000000000a7
:101a300011ff0000000000000100000012ff000084
:101a4000000000000100000018ff0000000000007e
:101a50000100000019ff000000000000010000006c
:101a600020ff0000000000000000000021ff000037
:101a7000000000000000000026df00000100000060
:101a800000000000377300000000000000000000ac
:101a90003a25000004000000000000003b25000083
:101aa000000000000000000053440000206d000012
:101ab0006f64000065000000596f0000757400003d
:101ac0007562000065000000204d00006f7200008c
:101ad0006e6900006e6700002020000000410000d9
:101ae00066740000657200006e6f00006f6e00008b
:101af0002000000045760000656e0000696e000061
:101b000067000000576500006c6300006f6d000007
:101b100065200000200000004e6f0000206d0000d6
:101b20006564000069610000202000000072000070
:101b300000200000504c00004159000020530000dc
:101b40006f6e000067000000496e000073650000c2
:101b50007274000020530000440000002e2e00008c
:041b60000000000081
:020000040000fa
:101b64000200fa000000eb00000f780005003700c7
:101b7400a0d020001e00400011c0b300014878002e
:101b84001e0fe8001e007800e20f5000f8ff34003a
:101b94003a68ef003468ef000080eb008080eb00cf
:101ba40040428800514288000080eb008080eb00b6
:101bb40060428800714288002f31070000db20005a
:101bc4003d0207000004e00033003a008042800038
:101bd40001db200001087800804280008000eb00d7
:101be40051009800804280008000eb006100980062
:101bf400824280006000b8007001980001099800da
:101c0400824280006000b800100998002109980001
:101c140080428000c1c5b3004158980010002000e4
:101c2400000f780006003700804280001e0040004c
:101c34007c00400001c2b300014878001e0fe80098
:101c44001e007800ea0f5000f7ff34008042800045
:101c54008000eb00411098008042800001012000c8
:101c64006110980082428000e0418000f1418000d0
:101c7400701198000119980082428000e0418000b0
:101c8400f141800010199800211998004068ef0074
:101c940010002000010037000000eb000080fa0073
:101ca400000006001400fa00881f780070079800ee
:101cb400010f980022579800335798007e00900037
:101cc4004010900060079800b000200010079800b2
:101cd4007e00900080189000701090007e019000ab
:101ce40010199800211998000e08900060119000b6
:101cf400020078000080ea008180ea002007980052
:101d04006e0090000000e0000a003a006c004700fa
:101d140012c0b300800078007e00900074070700b2
:101d24000000e00010003a00b00120001007980005
:101d34000d0037006e0090006f0060000000e000ae
:101d4400090032006c00470012c0b3008000780024
:101d54007e009000660707000000e00002003a00e1
:101d6400b0012000100798001e009000fb0f5000e7
:101d7400c10032001e0090000000e000bb003200f1
:101d84006c004700800078007e0090009b0b0700e9
:101d9400604798006e409000e24f5000b50032005a
:101da4006e4090000004e0009d003a007e00900028
:101db400e010900041079800ce009000f00320004e
:101dc40000806000400798003e5090000080fb00b7
:101dd4000000e00003003200e10f50002800320050
:101de4009e0037004e009000e80f50009200320031
:101df4000000eb0010079800d0c6b300204f9800f5
:101e04000040eb00004f7800190037001e80fb00f3
:101e1400fe0090007c00400061407800204f980054
:101e24001e80fb008e0890007c004000614078001a
:101e3400304f98002e4890000080fb0017fd0700eb
:101e4400000478003e4890000080fb0013fd07006a
:101e5400800f540005003200b000200010079800e5
:101e640000000000000000007c0037001e4fe80066
:101e74001e407800ea4f5000e4ff36007700370038
:101e8400ce0090002e009000008060000000e00072
:101e94006b003a004e009000ef0f50006a003200d1
:101ea4000000eb0010079800d0c6b300204f980044
:101eb4000e089000c0589000a0c2b30080cf50001c
:101ec400270032000040eb00004f78001f0037006d
:101ed4001e80fb00fe0090007c0040006140780002
:101ee400204f98001e80fb008e0890007c0040006c
:101ef40061407800304f9800be489000a0c2b30003
:101f040080cf500015003200be489000f0c3b300eb
:101f140080cf50000c0032002e4890000080fb005f
:101f2400defc0700000478003e4890000080fb00bf
:101f3400dafc0700800f540003003200b0002000d8
:101f440010079800060037001e4fe8001e40780076
:101f5400e74f5000deff36000100370000000000ac
:101f64000e089000c0609000a0c2b30080cf500063
:101f7400370032001e0090000000e00036003a00f6
:101f840080c0b300004f7800200037001e80fb00a3
:101f9400fe0090007c00400061407800204f9800d3
:101fa4001e80fb008e0890007c0040006140780099
:101fb400304f9800be489000a0c2b30080cf5000bc
:101fc40001003a0015003700be489000f0c3b3008a
:101fd40080cf50000c0032002e4890000080fb009f
:101fe400aefc0700000478003e4890000080fb002f
:101ff400aafc0700800f540003003200b000200048
:1020040010079800050037001e4fe8001e407800b6
:10201400ea4f5000ddff3600100037000f00370094
:102024002e5090000004e0000c003a000000eb0089
:10203400100798000900370000000000070037006f
:102044000000000005003700000000000300370016
:102054000000000001003700000000006e00900046
:102064000000e8006007980042ff3700000000000d
:1020740001003700000000001e0090004f047800ab
:102084000080fa00000006001000fa0050079800d3
:1020940061079800624f98000000eb00000f780081
:1020a4005e00900090007800110798001e009000d8
:1020b400306090000004e00003003a00700020004b
:1020c400000f7800890037005e00900080189000af
:1020d400701090005e01900010199800211998006a
:1020e4006e009000100078000000e00009003a0043
:1020f40012c0b300ee0090005e0090007c06070062
:102104000000e00010003a00b0012000000f780049
:102114000d0037006e009000100078006f00600022
:102124000000e0000800320012c0b300ee0090008e
:102134005e0090006e0607000000e00002003a0016
:10214400b0012000000f7800ee0090005e009000c7
:10215400aa0a0700404798004e4090000004e0009f
:1021640003003200b0002000000f78005f00370049
:102174005e0190006000b8007001980001099800a9
:102184005e009000a0009000100090005e0190009e
:1021940030019800410198005e0090008000eb003f
:1021a400510098005e0090008000eb0061009800f0
:1021b4004e409000e14f500003003a00b000200070
:1021c400000f78002c0037005e009000c0009000e3
:1021d400300090000001be001e009000d70f0700e1
:1021e400300798004107980038c8bf000004e00099
:1021f40005003200e61107000004e000020032008e
:10220400900020003a0037005e019000b24188003f
:1022140062428000734280003e009000ce00900035
:10222400800f5100818f5900130032003a68ef008b
:102234001e0090009080fb00104090000080fb0086
:102244004800dd0000807000000178003e0090002e
:10225400ce009000673007000004e00002003a005e
:1022640080002000000f78003e019000ce01900015
:102274006242880073428800de00900031089000ba
:102284000020a100b0089800ee48900070c7b30089
:1022940080cf500004003200ee48900010c6b30016
:1022a40080cf500009003a00de0090003108900011
:1022b4000000a000b0089800de00900031089000f3
:1022c4000010a100b008980008003700de0090005c
:1022d400310890000000a100b0089800de009000d2
:1022e400310890000010a000b00898001e0078008b
:1022f4000080fa00000006001a00fa00200f98007f
:10230400320f9800430f98000040eb00004f9800f4
:102314002e08900090007800510798005e0090000d
:10232400206090000080fb00e10f50000a003200a2
:10233400e30f500010003a0080ff2f00f1ff20004f
:102344002007980031079800f0ff2f00f1ff2000cc
:10235400008fbe001000370080ff20000100200025
:102364002007980031079800f0ff2f00010020009b
:10237400008fbe000800370080ff2f0001002000fe
:102384002007980031079800f0ff2f00010020007b
:10239400008fbe00000000002e0890003001900065
:1023a400c001900062079800730798006e019000c6
:1023b400fe0190005e009000a4150700000f980035
:1023c400110f98000e0890009e089000be0f500058
:1023d400ae8f580003003a0080c0b300004f98004d
:1023e4001f0037005e019000c25190008381fb0002
:1023f400525290000482fb004822dd008481710067
:1024040003007800e25190008381fb007251900038
:102414000281fb004811dd00028171008200780016
:102424000e0990009e099000820f5000838f58007f
:1024340002003e00a0c0b300004f98000e099000b7
:102444009e0990002e009000be009000800f510065
:10245400818f590002003900c0c3b300004f9800b7
:102464002e0890000e0990009e09900032009800fa
:10247400430098003e089000ce0890006100500090
:10248400e0805800300f9800410f98003e089000fb
:10249400ce089000e00f5000e08f58000300320097
:1024a4000e4890000004e000bbff32000e4890008c
:1024b4000080fa00000006000600fa0020079800d9
:1024c4000040eb00004f78002e0090008040eb00ad
:1024d400316098002e00900081862000f20f2000c9
:1024e4000281600090417800e0c1610002c1710086
:1024f40002487800c808de00104190006041610085
:1025040081407100114098000f31070010079800b6
:102514001e009000104078000004e0000500320026
:1025240060c0b300004f780060c0b30040e8b7005b
:102534003a0037001e009000900078000010200040
:10254400008060000000e000250032001e009000c2
:10255400100090006101b8002e009000f10f2000df
:1025640081006100005a9000604262008140720064
:1025740001589800c810de00105a900060426200b2
:102584008140720011589800f10f20008180610091
:10259400205a9000604262008140720021589800e5
:1025a400c818de003059900060416100814071001c
:1025b400315898001e0090009000900000202000e8
:1025c400808f50000600360010c2b300004f780020
:1025d40010c2b30040e8b7001e4078001000370076
:1025e4002e00900010000700004f78001e40780075
:1025f4000004e00009003a002e00900024010700c6
:10260400004f78001e4078000004e00003003a0008
:102614002e00900011c0b300316098001e40780075
:102624000080fa00000006000a00fa004007980043
:102634000040eb00004f78004e0090009080fb00bb
:10264400104090000080fb004800dd000080700016
:10265400000178006000b800662f0700e14f5000c9
:102664000500320080c0b300004f780080c0b30082
:1026740040e8b700030137004e0090009080fb0053
:10268400104090000080fb004800dd0000807000d6
:10269400100798001e009000e0f8930050c5b300a6
:1026a40080cf500097003a001e009000f0f893008d
:1026b400a0cab30080cf500092003a004e009000b0
:1026c4009080fb00104090000080fb004800dd007b
:1026d4000080700061032000530e070061c4b30042
:1026e400814f50003e003a004e0090009080fb0065
:1026f400104090000080fb004800dd000080700066
:1027040071032000480e070011c4b300814f50002c
:1027140033003a004e0090009080fb00104090007f
:102724000080fb004800dd00008070008103200071
:102734003d0e070041c5b300814f500028003a0008
:102744004e0090009080fb00104090000080fb0041
:102754004800dd000080700091032000320e070065
:1027640011c3b300814f50001d003a004e00900089
:102774009080fb00104090000080fb004800dd00ca
:102784000080700061022000270e070091c2b30090
:10279400814f500012003a004e009000a04090007b
:1027a400e0c0600021409800b0409000e0c06000ac
:1027b40031409800c0409000e0c060004140980063
:1027c400d0409000e0c06000514098004e0090005e
:1027d40021c0b300216098000040eb00aa0037003c
:1027e4004e0090009080fb00104090000080fb00a1
:1027f4004800dd0000807000210520000a0e07005b
:1028040061c4b300814f50003e003a004e00900076
:102814009080fb00104090000080fb004800dd0029
:102824000080700031052000ff0d070011c4b300c3
:10283400814f500033003a004e0090009080fb001e
:10284400104090000080fb004800dd000080700014
:1028540041052000f40d070041c5b300814f50002d
:1028640028003a004e0090009080fb001040900039
:102874000080fb004800dd0000807000510520004e
:10288400e90d070031c3b300814f50001d003a0029
:102894004e0090009080fb00104090000080fb00f0
:1028a4004800dd000080700021042000de0d0700d8
:1028b40091c2b300814f500012003a004e009000c4
:1028c400a0409000e0c0600021409800b04090001b
:1028d400e0c0600031409800c0409000e0c060005b
:1028e40041409800d0409000e0c060005140980002
:1028f4004e00900031c0b300216098000040eb000e
:10290400610037004e0090009080fb001040900062
:102914000080fb004800dd00008070002007980064
:102924002e009000e0f8930050c5b30080cf500013
:1029340005003a002e009000f0f89300a0cab300fe
:1029440080cf50000500320040c0b30040e8b7001b
:1029540040c0b300004f78004a0037002e009000ba
:10296400e0c093008180fb0070c293000482fb00ee
:102974004822dd00848070000101780080c8930043
:102984008180fb0010c893000080fb004800dd003c
:1029940000807000800178004e009000f10f20004c
:1029a4008100610020429000604262008140720018
:1029b40021409800c810de0030429000604262005e
:1029c4008140720031409800f10f20008180610045
:1029d4004042900060426200814072004140980091
:1029e400c818de00504190006041610081407100d0
:1029f400514098002e009000a0c0930061479800b9
:102a04006e4090000080fb00ee0f500019003e0065
:102a1400110020000008dd00010524008100600091
:102a24000100e0000b003a000180210081006000f9
:102a34000100e0000b003a00620060000000e000ca
:102a44000c0032004e00900011c0b30021609800c9
:102a54000c0037004e00900021c0b30021609800a4
:102a6400080037004e00900031c0b3002160980088
:102a74000400370050c0b30040e8b70050c0b300b2
:102a8400004f78001e4078000080fa000000060025
:102a94001a00fa00889fbe00400f98000040eb0027
:102aa400404798000000eb00300798000000eb005e
:102ab400400798004e0890009080fb001040900062
:102ac4000080fb004800dd00008070008001780079
:102ad4004e099000224290000482fb00b242900012
:102ae4008582fb00c82add0005027200040078001c
:102af400424290000482fb00524190000281fb009c
:102b04004811dd00020172008200780003017800a0
:102b1400382e0700e14f50000300320080c0b3009c
:102b240040479800eb0237004e0890009080fb006d
:102b3400104090000080fb004800dd000080700021
:102b4400500798005e009000e0f8930050c5b30071
:102b540080cf500005003a005e009000f0f893002a
:102b6400a0cab30080cf50000300320030c0b300cd
:102b7400404798001b0237004e0890009080fb00ed
:102b8400104090000080fb004800dd0000807000d1
:102b9400e10020002c0d0700600798004e0890000b
:102ba4009080fb00104090000080fb004800dd0096
:102bb40000807000d10020001b0d0700ce0890009b
:102bc400906098004e099000a24190008381fb0020
:102bd400324290000482fb004822dd0084817100af
:102be40003007800c24190008381fb0052419000b1
:102bf4000281fb004811dd0002817100820078002f
:102c04006e0190008001eb000001410081814900c8
:102c14004e089000f10f2000810061006042900096
:102c2400604262008140720061409800c810de007a
:102c340070429000604262008140720071409800ce
:102c4400f10f200081806100004a90006042620020
:102c54008140720001489800c818de0010499000b5
:102c64006041610081407100114898004e08900055
:102c74009080fb00104090000080fb004800dd00c5
:102c84000080700001012000e70c0700ce089000ce
:102c9400806098004e0890009080fb0010409000e7
:102ca4000080fb004800dd0000807000610120000e
:102cb400e50c07006101b8004e089000f10f2000f8
:102cc40081006100405a90006042620081407200bd
:102cd40041589800c810de00505a900060426200cb
:102ce4008140720051589800f10f200081806100ea
:102cf400605a9000604262008140720061589800fe
:102d0400c818de0070599000604161008140710074
:102d1400715898004e099000c25990008381fb00bd
:102d2400525a90000482fb004822dd008481710025
:102d340003007800e25990008381fb0072599000ef
:102d44000281fb004811dd000281710082007800dd
:102d5400e00f5000e08f580020003a004e08900029
:102d64009080fb00104090000080fb004800dd00d4
:102d74000080700041022000cd0c07000001be005d
:102d84004e089000f10f200081006100405a90002d
:102d9400604262008140720041589800c810de0011
:102da400505a90006042620081407200515898006d
:102db400f10f200081806100605a9000604262003f
:102dc4008140720061589800c818de007059900064
:102dd4006041610081407100715898004e08900074
:102de400e04090008180fb00704190000281fb0074
:102df4004811dd0082807000010278008048900054
:102e04008180fb00104890000080fb004800dd003a
:102e140000807000800278004e08900000609000ee
:102e24000081fb008001eb004e0b9000c65b90001c
:102e34008783fb00565c90000884fb004844dd0057
:102e44008883730007007800e65b90008783fb00ab
:102e5400765b90000683fb004833dd000683730035
:102e640086007800009bb90006037800028cb90044
:102e740088037800070343000010b80001034300ef
:102e84008600780004014000858148004e089000c7
:102e9400f10f200081006100204a9000604262002e
:102ea4008140720021489800c810de00304a90002a
:102eb400604262008140720031489800f10f2000a6
:102ec40081806100404a900060426200814072004b
:102ed40041489800c818de005049900060416100e4
:102ee40081407100514898004e0890009080fb008a
:102ef400104090000080fb004800dd00008070005e
:102f040011012000500c0700800078004e0890004a
:102f1400f20f200002816000a0519000e0c1610026
:102f240002c1710022509800c808de0030519000a0
:102f34006041610081407100315098004e0890005a
:102f44009080fb00104090000080fb004800dd00f2
:102f540000807000310120003b0c07008000eb0072
:102f6400008fbe001e00be00e00f5000e08f58002e
:102f740009003a004e0890009080fb001040900039
:102f84000080fb004800dd0000807000010220008a
:102f9400470c0700008fbe004e0890009080fb0095
:102fa400104090000080fb004800dd0000807000ad
:102fb400b1002000240c0700700798007e009000e8
:102fc4000000e000050032007e0090006100600017
:102fd400004078000004e0000300320010c2b30097
:102fe40040479800ff0037004e089000a050900022
:102ff4008180fb00305090000080fb004800dd0021
:1030040000807000c500dd007e009000008040005c
:103014008000e9007e0090000001780011000900a2
:103024008280d8008000eb00000f9800110f9800f8
:103034006e0090006103b8004e089000006090009c
:103044000081fb008001eb004e0a9000c45a9000fe
:103054008582fb00545c90000884fb004844dd003a
:103064008882720005007800e45a90008582fb0093
:10307400745a90000482fb004822dd00048272002e
:1030840084007800009ab90004027800028cb90028
:1030940088027800050242000010b80001024200d4
:1030a4008400780006014000878148000e089000e3
:1030b4009e08900002004000838048003e011000fa
:1030c400ae8118000200be00200f9800310f980056
:1030d4004e089000106090000080fb008000eb0020
:1030e4000001be002e089000be0890005bf80700a7
:1030f4000001be004e089000f10f20008100610025
:103104004052900060426200814072004150980039
:10311400c810de005052900060426200814072008c
:1031240051509800f10f200081806100605290009e
:10313400604262008140720061509800c818de004d
:10314400705190006041610081407100715098009d
:103154004e099000c25190008381fb0052529000ae
:103164000482fb004822dd008481710003007800a2
:10317400e25190008381fb00725190000281fb00b8
:103184004811dd00028171008200780042ff2000b6
:1031940003002000820f5000838f580004003e007b
:1031a4004e08900011c0b300216098001b00370046
:1031b4004e099000c25190008381fb00525290004e
:1031c4000482fb004822dd00848171000300780042
:1031d400e25190008381fb00725190000281fb0058
:1031e4004811dd00028171008200780042ff2f0047
:1031f40003002000820f5000838f580004003e001b
:103204004e08900021c0b3002160980003003700ed
:103214004e08900031c0b300216098004e08900021
:1032240020609000e34f500035003a004e089000b3
:103234009080fb00104090000080fb004800dd00ff
:1032440000807000c1022000990b0700e041880053
:10325400f14188004e099000a24990008381fb004f
:10326400324a90000482fb004822dd008481710010
:1032740003007800c24990008381fb00524990000a
:103284000281fb004811dd00028171008200780098
:103294000e0990009e0990000001410081814900bf
:1032a4004e089000f10f200081006100604a9000f8
:1032b400604262008140720061489800c810de00dc
:1032c400704a900060426200814072007148980028
:1032d400f10f200081806100005290006042620082
:1032e4008140720001509800c818de00105190000f
:1032f4006041610081407100115098003300370033
:103304003c28ef003e28ef004e099000a2499000af
:103314008381fb00324a90000482fb004822dd00d6
:103324008481710003007800c24990008381fb000e
:10333400524990000281fb004811dd0002817100b6
:10334400820078004e099000a25190008381fb0016
:10335400325190000281fb004811dd0002817100ae
:103364004411de008001eb0000014100818149002d
:103374004e089000f10f200081006100604a900027
:10338400604262008140720061489800c810de000b
:10339400704a900060426200814072007148980057
:1033a400f10f2000818061000052900060426200b1
:1033b4008140720001509800c818de00105190003e
:1033c400604161008140710011509800fe0090003e
:1033d40000202000808f50000200360010c2b3008d
:1033e400404798004e08900020609000e34f500042
:1033f4000d0032004e4090000004e000ae003200a8
:103404005e009000a0c0900090c2b30080cf500036
:10341400050032005e009000a0c0900080c2b3009e
:1034240080cf5000a6003a005e009000b05090009b
:103434008180fb00405090000080fb004800dd00cc
:10344400008070000000e0003a003a005e00900046
:10345400407090000004e00036003a005e009000e6
:10346400507090000004e00032003a005e009000ca
:10347400607090000004e0002e003a005e009000ae
:10348400707090000004e0002a003a005e00900092
:10349400007890000004e00026003a005e009000ee
:1034a400107890000004e00022003a005e009000d2
:1034b400207890000004e0001e003a005e009000b6
:1034c400307890000004e0001a003a005e0090009a
:1034d400407890000004e00016003a005e0090007e
:1034e400507890000004e00012003a005e00900062
:1034f400607890000004e0000e003a005e00900046
:10350400707890000004e0000a003a005e00900029
:10351400a0c0900090c2b30080cf500007003200da
:103524005e009000a0c0900080c2b30080cf500025
:103534000200320030c0b300404798004e40900073
:103544000004e000300032003e0090000000e00083
:103554002d003a0010002000300798004e0890001b
:103564009080fb00104090000080fb004800dd00cc
:1035740000807000000278004e099000a241900083
:103584008381fb00b24290008582fb00c82add00e3
:103594008581710003007800c24190008381fb00a3
:1035a400524190000281fb004811dd00028171004c
:1035b400820078005e019000a27190008381fb007c
:1035c400327190000281fb004811dd00028171001c
:1035d4008001eb0000004100818049000401780073
:1035e400842b0700e14f50000400320080c0b30078
:1035f40040e8b70080c0b3003d0037000040eb0056
:10360400404798002b0037004e4090000004e00033
:103614002d0032004e0090000000e0002c003a0023
:1036240010002000400798004e0890009080fb0096
:10363400104090000080fb004800dd000080700016
:10364400800178004e099000224290000482fb0021
:10365400b24290008582fb00c82add000502720098
:1036640004007800424290000482fb005241900022
:103674000281fb004811dd00020172008200780023
:1036840066004000e080480003017800592b0700e1
:10369400e14f50000400320080c0b30040e8b7009e
:1036a40080c0b300120037000040eb004047980090
:1036b4000000000023fd3700000000000500370073
:1036c4000000000003003700000000000100370084
:1036d400000000004e4090000004e00003003200af
:1036e400ce40900003842000814978004e40900031
:1036f4004f04be000080fa00000006000600fa0035
:10370400200798006000b800008fbe002e009000d3
:10371400200890008000eb00008fbe001e00be0059
:10372400c000dd0000002000008fbe002e009000cd
:10373400500890008000eb001e1f70001e97700060
:103744001e00be000080fa00000006001000fa000f
:1037540060079800710798006e0090009000780050
:10376400110798006e00900010199000a0199000a5
:1037740022079800330798007e009000100078001c
:103784006102b8001e019000825990008381fb0001
:10379400125b90000683fb004833dd0086817100d4
:1037a40003007800a25990008381fb0032599000f5
:1037b4000281fb004811dd00028171008200780063
:1037c400cb09dd004500de0000807100c508de0085
:1037d4000001be000400be00a0f6070010479800d8
:1037e4001e009000206090000080fb00e10f50005c
:1037f40022003500e20f50000d003400e30f5000aa
:103804001e003a001e009000106090009e40900040
:103814008180fb000080fb0000017800110009009a
:103824008280d8008000fd00104798001300370004
:10383400e0418000f14180002e019000be01900023
:10384400800f5100818f59000b0032001e00900040
:10385400106090009e4090008180fb000080fb007f
:1038640080017800110009008380d8008000fd00e9
:103874001047980001003700000000002e0190005e
:10388400be0190001e0090002c0a0700400798001b
:10389400510798001e0090009080fb00104090009b
:1038a4000080fb004800dd0000807000000278000a
:1038b4001e4090000081fb008001eb004e00900050
:1038c400de00900002004000838048008041eb004d
:1038d400040178003e2b07000004e00003003a00d6
:1038e4000040eb00004f78000200370010c0b30026
:1038f400004f78001e4078000080fa0000000600a7
:103904001400fa0070079800010f9800120f980035
:103914000000eb00400798001e0890002060900013
:103924000080fb00e10f50000a003200e30f50005a
:1039340010003a00f0ff2f00f1ff2000200798004c
:103944003107980080ff2f00f1ff2000008fbe0098
:1039540010003700f0ff2f0001002000200798001e
:103964003107980080ff200001002000008fbe0076
:1039740008003700f0ff2f00010020002007980006
:103984003107980080ff2f0001002000008fbe0047
:10399400000000007e0090008e089000e00f5000b0
:1039a400e08f5800070032007e0190008e099000dd
:1039b4001000200001002000800f5100818f590069
:1039c4003b003a0020002000400798003b003700ed
:1039d4007e0190008e0990001e0890001b100700c5
:1039e40050079800610798005e019000ee01900076
:1039f4002e009000be009000800f5100818f59006e
:103a040003003a0010002000400798002800370007
:103a14005e009000ee009000e00f5000e08f580030
:103a2400070032005e019000ee01900010002000bb
:103a340001002000800f5100818f590003003a00db
:103a44002000200040079800190037005e00900015
:103a5400ee009000be0f5000ae8f580002003900f7
:103a640020002000400798008040eb006022b8004e
:103a74007e0190008e0990001e089000fa11070044
:103a84000001be002e009000be009000800f510087
:103a9400818f590002003a0010002000400798006e
:103aa4005e019000ee01900072079800030f9800e9
:103ab4004e0090000000e000c5ff320011c0b300ca
:103ac4006022b8006011b8001e089000e6110700db
:103ad4004e009000e20f500002003a0010c0b30004
:103ae400010037000040eb000080fa0000000600ef
:103af4001c00fa00300f9800410f9800225f9800d4
:103b04003e08900090007800610798003e089000fd
:103b1400701190008019900072079800030f9800ac
:103b24003e08900010199000a019900032079800e8
:103b3400430798004e089000100078006102b80016
:103b44006e019000825990008381fb00125b90000b
:103b54000683fb004833dd00868171000300780092
:103b6400a25990008381fb00325990000281fb002e
:103b74004811dd000281710082007800cb09dd006c
:103b84004500de0000807100c508de000001be00b3
:103b94000400be00b1f50700204f98006e009000ad
:103ba400206090000080fb00e30f50000f003a00fb
:103bb4006e00900010609000ae4890008180fb0081
:103bc4000080fb0000017800110009008280d80009
:103bd4008000fd00204f980080ff2f00f1ff20009f
:103be4001007980021079800140037007e00900009
:103bf4008e089000e00f5000e08f58000a00320059
:103c04006e00900010609000ae4890008180fb0030
:103c14000080fb0080017800110009008380d80037
:103c24008000fd00204f980080ff2f00010020003d
:103c34001007980021079800000000002e589000fb
:103c44000004e00005003a004e08900010007800df
:103c54006f0060000000e000b2003a002e489000bf
:103c64000004e00004003a004e08900010007800c0
:103c7400ef0f500003003e002e5890000004e000b7
:103c84002f0032007e0090008e089000e00f50005c
:103c9400e08f580004003a006000b8003007980034
:103ca40041079800260037002e5890000004e000d9
:103cb4000b0032004e089000900078006e009000d7
:103cc400106090000080fb004400dd0000017800db
:103cd400110009008280d800304f9800130037008b
:103ce40010c0b300304f9800100037003e01900020
:103cf400ce0190006e009000540f0700300798002a
:103d0400410798003e019000ce0190001e009000f3
:103d1400ae009000800f5100818f590007003100e0
:103d24003e4890000040e900304f98003e48900023
:103d34000004e000edff3a0001003700000000003d
:103d44003e019000ce0190001e009000ae00900055
:103d5400800f5100818f59006d0031003e089000a2
:103d64003e019000ce01900012189800231898008c
:103d74003e019000ce0190006e009000ef08070015
:103d8400100f9800210f9800e0418000f14180005d
:103d94003e019000ce019000800f5100818f5900a8
:103da40020003a002e4890000081fb008001eb00c7
:103db4001e089000ae089000020240008382480072
:103dc4006e019000e24990008381fb00724b9000e9
:103dd4000683fb004833dd00868171000300780010
:103de400825190008381fb00125190000281fb00fc
:103df4004811dd000281710082007800800f5200ba
:103e0400818f5a00070039006e00900020609000f6
:103e1400e34f5000030032000000eb00000f780075
:103e24004c00370038c8bf000004e0000500320031
:103e3400d70a07000004e000020032000000eb0093
:103e4400450037003628ef003a68ef006e00900016
:103e54009080fb00104090000080fb004800dd00d3
:103e640000807000000278002e4890000081fb0062
:103e74008001eb001e089000ae0890000200400094
:103e840083804800040178005a290700e14f50005c
:103e9400030032000000eb00000f78001700370029
:103ea4002e5890000004e0000d0032006e009000d7
:103eb4009080fb00104090000080fb004800dd0073
:103ec40000807000800078004e0890001000780098
:103ed4006f0060004500dd00008f400007003700e0
:103ee4006e0090009080fb00104090000080fb006a
:103ef4004800dd0000807000000f78000080eb00b7
:103f04008080eb0060428800714288001100370015
:103f140010c0b30039e8b7000000eb00000f7800d0
:103f24000c0037006e0090009080fb001040900061
:103f34000080fb004800dd000080700080007800f5
:103f44004e089000100078006f0060004500dd000e
:103f5400008f40001e0078000080fa000000060078
:103f64001600fa00000f9800110f980042579800ad
:103f74000000eb00100798004068ef000040eb00e1
:103f8400004f7800080037001e80fb009e80fb0075
:103f94000e099000fc804000e2c078000000470059
:103fa400414098001e4fe8001e407800ea4f500040
:103fb400f5ff36001e0890008000eb000108780031
:103fc4009e0890000e089000570007000004e000cf
:103fd4000f00320064004700ce5190001e0990008b
:103fe400800078000e089000dc0007000080fb00d1
:103ff400100798001e0090000000e00006003a0040
:104004000e0890000a00070010079800020037000d
:1040140040012000100798001e0090000040780026
:1040240040e8b7001e0090000080fa00000006007f
:104034001000fa00700798007e0090004010900075
:104044006007980068004700800078007e009000b8
:1040540056070700000f78001e0078000000e000fb
:104064002e003a006c004700800078007e0090002b
:1040740090030700100798004e009000de009000a7
:10408400800078001e009000510898004e019000b6
:10409400de01900000002000f1ff20000202780001
:1040a40003017800800178000100780003026200b7
:1040b400000061008000eb00c000dd000000200073
:1040c4000001be006120b80000017100818171000f
:1040d40022079800330798002e009000be0090003d
:1040e4004008de00010020002007980031079800f6
:1040f400ae0090001e009000210898006c0047005c
:10410400800078007e00900090fd0700e14f500091
:104114000200320090002000000f78001e0078009a
:104124000080fa00000006001000fa006007980002
:104134007107980010c0b300004f78006e00900023
:1041440080189000701090006e0190001019980073
:104154002119980012c0b300fe0090006e00900078
:1041640063fe0700300798003e0090000000e00066
:104174006c003a00b0c1b300004f78006f00370004
:104184000040eb00104798007e00900090007800fb
:10419400210798000041eb00fe0090006e009000a3
:1041a40053fe0700300798003e0090000000e00036
:1041b400030032003e009000104078002047980031
:1041c4007e009000100078008000e8007e009000df
:1041d400010878002e409000fb4f4000030032009d
:1041e4002e4090000004e00009003a003e009000d8
:1041f4000000e000060032001e4090000040e8008d
:10420400104798001e4090000004e000e1ff3200d7
:104214003e0090000000e0003a003a006e0090007a
:1042240010199000a01990004207980053079800b5
:10423400e0418000f14180004e019000de019000d9
:10424400800f5100818f59001b003a006e009000ce
:104254001000780020609000e34f5000030032000b
:1042640020c0b300004f78002e0037006e0090008d
:104274004e019000de019000320098004300980047
:1042840011c0b3006e00900099000700f54f500074
:1042940003003a0020c0b300004f7800210037002b
:1042a4007e009000ae019000030878000040eb000f
:1042b400004f78001b0037006e0090004e01900004
:1042c400de019000320098004300980011c0b30052
:1042d4006e00900086000700f54f500003003a007e
:1042e40020c0b300004f78000e0037007e0090001d
:1042f400ae019000030878000040eb00004f780006
:10430400080037001e409000e14f500005003a00bd
:104314000040eb00004f78007e009000ae0090005b
:10432400010878001e407800e14f500094ff3200ed
:104334007e0090002e019000020878001e40780054
:104344000004e00002003a0010c0b300010037008e
:104354000040eb000080fa00000006000c00fa00a8
:10436400200798003107980042079800234f9800cf
:104374000040eb00004f78002e0090008018900061
:10438400701090002e0190001019980021199800c7
:1043940012c0b300ce0090002e009000d4fd0700a0
:1043a400100798001e0090000000e00002003a0090
:1043b400b0c1b3004c0037001e009000b2002000d2
:1043c400be00900029f407002e489000f24f5000e0
:1043d40004003a001e00900001c1b3003148980067
:1043e400030037001e00900001c2b300314898005a
:1043f4001e0090008040eb00414898001e00900091
:104404008000eb00210898001e0090008000eb0063
:10441400510898001e0190006000b80060099800df
:10442400710998001e00900021cbb30051489800f8
:104434001e00900081272700710098001e00900044
:10444400012b2300010898001e009000012b23007b
:10445400110898001e009000912727003108980049
:104464001e009000012b2300410898001e009000bc
:10447400f0089000600890002e0190001009980048
:10448400210998001e009000f00090002e0090007a
:10449400410898001e009000800890002e009000b3
:1044a400510898001e009000304890008080fb0066
:1044b4002e009000611098004e009000900078004b
:1044c4002e00900041109800ce0090002e00900025
:1044d4009efc0700e14f50000200320090c0b30080
:1044e400004f78001e4078000080fa0000000600ab
:1044f4000e00fa0050079800414f98005e009000ab
:10450400100f78005e00900030019000c001900010
:1045140012079800230798005e00900044000700eb
:1045240010079800210798001e009000ae0090002c
:10453400e00f5000e08f580002003a0050c1b30071
:10454400390037001e00780020609000e14f5000d1
:1045540008003a008040eb0084ff200005002000a2
:104564001e019000ae0190001e0078003e0f07006f
:10457400130037001e00780020609000e24f5000c6
:1045840008003a008040eb0084ff2f000500200063
:104594001e019000ae0190001e007800320f07004b
:1045a400070037008040eb0084ff2f00f5ff200058
:1045b4001e019000ae0190001e0078002a0f070033
:1045c4005e00900030019000c00190003207980016
:1045d400430798008040eb001e029000ae0290005a
:1045e4003e019000ce0190001e0078001e0f0700cf
:1045f4005e0090001e019000ae0190003200980011
:10460400430098004e489000e14f500005003a00e6
:104614001e019000ae0190001e0078003b060700ca
:10462400010037000040eb000080fa0000000600a3
:104634001800fa00300f98006000b8006007980076
:10464400710798003e08900090007800010f9800d0
:104654003e08900030019000c0019000028fbe001f
:104664000e089000206090000080fb00e10f5000d5
:104674000b003200e30f500012003a0070ff2f00cd
:10468400f1ff20002007980031079800f0ff2f0069
:10469400f1ff2000400798005107980012003700ee
:1046a40070ff2000010020002007980031079800c7
:1046b400f0ff2f00010020004007980051079800e8
:1046c4000900370070ff2f00010020002007980028
:1046d40031079800f0ff2f000100200040079800e8
:1046e40051079800000000001e01be0010002000c9
:1046f40001002000800f5100818f590003003e000b
:104704002000200001002000008fbe001e01be001a
:10471400120f9800230f98001e01be000e0890008f
:10472400ca0c07003f0037001e01be000e089000af
:10473400c60c070060079800710798006e0190008e
:10474400fe0190004e009000de009000800f5100aa
:10475400818f590003003a006000b800008fbe004a
:10476400360037006e009000fe009000e00f50000d
:10477400e08f5800300032001200200003002000b7
:104784001e0f41005e9749006e019000fe019000eb
:104794002e009000be009000800f5100818f5900c0
:1047a400140032000e099000c25190008381fb0076
:1047b400525290000482fb004822dd008481710083
:1047c40003007800e25190008381fb007251900055
:1047d4000281fb004811dd00028171008200780033
:1047e40062004000e0804800be0f5000ae8f5800c9
:1047f40003003e002000200001002000008fbe00c6
:104804001e089000ae0890001e01be00800f5100eb
:10481400818f590003003a006000b800008fbe0089
:10482400060037001e00be00e00f5000e08f580065
:10483400bdff3a0001003700000000001e00be006a
:104844000080fa00000006000a00fa004007980001
:1048540080042000100798004068ef004e0090008c
:1048640040109000300798004e00900030089000ef
:10487400610060000000e0004b00320038c8bf0057
:104884000004e00007003200410807000004e000d3
:104894000400320090c0b30040e8b7000080eb0091
:1048a4005d0037004e0090001000780011c0b30086
:1048b4006022b8006011b8006b0e07004828ef00b2
:1048c4004a28ef004e009000c00090003000900095
:1048d4004e019000120278000001be00040078002e
:1048e4005a0c070066004700800078004e009000d4
:1048f40070010700200798002e0090000000e000df
:1049040006003a00b0c1b30040e8b7000080eb00f5
:10491400100798001e0090003f0037002e00900002
:104924003f0007004e009000a0089000100890007f
:104934002e01900060099800710998004e009000c3
:1049440060109000804078002e009000314898005c
:1049540066004700800078004e0090007bfb070053
:104964000004e00008003200660047008000780080
:104974004e0090004f010700200798000000eb0054
:10498400100798000400370090c0b30040e8b70057
:104994000080eb0010079800ce00900031089000d2
:1049a4000000a100b00898000000eb00000f7800a0
:1049b4000f0037009e007800600320000088b900d3
:1049c4008000780080c62000808040004e00900067
:1049d400808f500005003a00a0d020001e00400047
:1049e40011c0b30001487800040037001e0fe8002e
:1049f4001e007800e20f5000eeff36009e0090008b
:104a040080042000808f500002003a000000eb0078
:104a1400100798001e0090000080fa0000000600b5
:104a24000800fa00300798003e009000300890001b
:104a3400004078007f4f60003e009000b008900076
:104a4400007e2000008060004500de0010479800d2
:104a54003e009000300890004b00de002047980094
:104a64003e00900040089000004078007f406000c5
:104a7400304798003e009000c0089000001e2000bf
:104a8400008060004500de00404798003e00900032
:104a9400400890004900de00504798001e4078000e
:104aa400fc4f500002003e001e4fe8002a00370071
:104ab4000040eb00004f78009e409000a0c3b3007c
:104ac40080cf500004003e001e4090000040e800eb
:104ad40010479800200037000040eb001047980072
:104ae4002e409000f64f500004003e002e409000ef
:104af4000040e80020479800170037000040eb0012
:104b0400204798003e409000fd4f500004003e00b6
:104b14003e4090000040e800304798000e00370007
:104b240010c0b300304798004e409000eb4f500047
:104b340004003e004e4090000040e80040479800ca
:104b44000500370010c0b300404798005e40900055
:104b54000040e800504798009e80fb003e00900013
:104b6400310898003e009000b00890001e4090006c
:104b74000080fb004500dd00810070003e009000d5
:104b8400310898003e009000b00890002e4090003c
:104b94000080fb004b00dd00810070003e009000af
:104ba400310898003e4090008080fb003e00900059
:104bb400410898003e009000c00890004e409000cc
:104bc4000080fb004500dd00810070003e00900085
:104bd400410898003e009000c00890005e4090009c
:104be4000080fb004900dd00810070003e00900061
:104bf400410898000080fa00000006000c00fa004a
:104c040040079800510798000040eb004047980087
:104c14005e009000100078006f0060000000e0006b
:104c240010003a005e009000100078000000e000e0
:104c34000c0032004e00900080189000701090001c
:104c44004e019000101998002119980012c0b30069
:104c5400de0090004e009000a5fb0700000f7800d6
:104c6400050037000041eb00de0090004e0090008c
:104c74009ffb0700000f78001e0078000000e00092
:104c840003003a0020c0b300304798008600370084
:104c94001e00780010407800504798005e40900055
:104ca400fb4f400003003a0010c0b30030479800a7
:104cb4007d0037005e4090000004e00003003a00ed
:104cc40020c0b30030479800770037001e007800fa
:104cd400b0489000514798000040eb0020479800ee
:104ce400150037002e4090000080fb009e007800e5
:104cf40061407800604798006e4090000080fb009f
:104d04006df10700604798004e4090000080fb0062
:104d1400ee4090004e019000000041004158980080
:104d24004e4090000040e800404798002e4090001c
:104d34000040e800204798002e409000e74f5000c4
:104d4400e8ff36001e007800b048900051479800f4
:104d54001e00780000489000604798000040eb0077
:104d640020479800160037002e4090000080fb007a
:104d74009e00780068004000614078006047980019
:104d84006e4090000080fb004bf1070060479800e4
:104d94004e4090000080fb00ee4090004e019000d9
:104da40000004100415898004e4090000040e80047
:104db400404798002e4090000040e80020479800ab
:104dc4002e409000e24f5000e7ff36005e00900056
:104dd400900078004e009000411098001e0078006a
:104de40010407800504798005e409000fb4f400010
:104df40003003a0010c0b3003047980002003700a7
:104e04000040eb00304798001e007800f008900046
:104e1400600890004e019000100998002109980044
:104e24001e00780035fa07004e019000100198002a
:104e3400210198001e007800b04890005147980066
:104e44005e4090008080fb004e009000611098004e
:104e54005e4090000080fb00700060000000e000f5
:104e6400090032001e007800f00090004e0090000f
:104e7400410898001e007800800890004e009000c1
:104e840051089800080037001e007800b008900010
:104e94004e009000410898001e007800c008900061
:104ea4004e009000510898003e4090000080fa00a7
:104eb400000006000800fa00200798003107980057
:104ec4002e00900080189000701090002e01900029
:104ed400101998002119980012c0b300be00900068
:104ee4002e00900002fb0700000f78001e007800df
:104ef4000000e00002003a000000eb002b00370045
:104f04001e00780010407800204798002e40900042
:104f14000004e00002003a000000eb00000f7800fb
:104f24001e0078000000e0001f0032002e409000b8
:104f3400fb4f400003003a000000eb00000f780034
:104f4400190037001e007800b048900021479800ef
:104f5400120037003e009000100078008000e80046
:104f64003e009000010878000041eb00be00900074
:104f74002e009000defa0700000f78001e00780073
:104f84000000e00002003a000000eb0007003700d8
:104f94001e007800b0489000214798002e409000f1
:104fa400ef4f5000ebff32001e0078000080fa0043
:104fb400000006001200fa006007980071079800cc
:104fc400025798000000eb00000f78006e0090007c
:104fd40090007800110798006e0090007011900006
:104fe4008019900022079800330798006e00900003
:104ff4002e019000be01900012189800231898000a
:1050040012c0b300fe0090006e009000b8fa0700d2
:10501400400798004e0090000000e00004003a00b1
:1050240010c0b30040e8b700b001200041003700d1
:105034004e00900010407800204f98004e009000e1
:105044000000e000030032002e4890000004e0005d
:1050540003003a00b0002000000f78002d00370054
:105064002e489000fb4f400003003a00b00020009f
:10507400000f7800270037004e009000b0499000e0
:10508400234f98004e00900051ceb30001487800a1
:105094004e00900099f90700200798003107980006
:1050a4001e0078000000e00005003a00fe009000b9
:1050b4006e009000a5f907000004e00003003a0028
:1050c40010002000000f780012003700e04180003b
:1050d400f14180002e019000be019000800f51002c
:1050e400818f59000b0032000e5090000004e00044
:1050f400080032001e0190002e009000be009000b7
:10510400fff907000080fb000000e9004f00de000b
:10511400000f78001e0078000000e00002003a0052
:105124004068ef000200370010c0b30040e8b70049
:105134001e0078000080fa00000006001800fa0043
:10514400200f9800310f98000040eb0010479800a2
:1051540010002000100f98004068ef003e089000f7
:105164000000e00004003a0090c1b30040e8b7003a
:105174000080eb00af0037003e0890007c00400048
:105184000041eb00800078002e08900048070700db
:105194000004e00004003a0020c1b30040e8b70076
:1051a4000080eb00a30037000040eb00004f7800c4
:1051b400080037001e80fb009e80fb003e09900023
:1051c400fc804000e2c07800000047006140980085
:1051d4001e4fe8001e407800ea4f5000f5ff3600ed
:1051e4003e089000c0109000110798000000eb00ea
:1051f400100f98003e0890008018900070109000e6
:105204003e09900010199800211998007200470077
:1052140012c0b300800078003e08900034fa070002
:10522400200798002e0090000000e00004003a00df
:10523400b0c1b30040e8b7000080eb007d00370048
:105244000040eb00004f78000b0037001e80fb008d
:10525400ae009000e14078001e80fb000000470093
:105264006040900080cf50000200320010c0b300b4
:10527400104798001e4fe8001e407800ea4f500087
:10528400f2ff36001e4090000004e00004003a00e3
:1052940010c1b30040e8b7000080eb0065003700a0
:1052a4000040eb00104798003968ef007200470097
:1052b4000041eb00800078003e0890000cfa0700e3
:1052c400200798002e0090000000e00007003a003c
:1052d40039c8bf00e14f500026003200b0c1b3000e
:1052e40040e8b7000080eb00520037002e00900029
:1052f400104078000004e000200032000040eb0081
:10530400004f78000b0037001e80fb00ae009000b9
:10531400e14078001e80fb000000470060409000e0
:1053240080cf50000200320010c0b3001047980034
:105334001e4fe8001e407800ea4f5000f2ff36008e
:105344001e4090000004e00004003a0010c1b300c5
:1053540040e8b7000080eb00360037000040eb0067
:10536400104798001e0890000000e800100f9800f5
:10537400ceff3700000000000100370000000000ed
:105384009e009000110f98003e0890008018900035
:10539400701090003e09900010199800211998008f
:1053a40072004700800078003e089000c1fe0700ac
:1053b400200798002e0090000000e00004003a004e
:1053c400b0c1b30040e8b7000080eb00190037001b
:1053d4000040eb00004f7800080037001e80fb00ff
:1053e4009e80fb003e099000fc80400062c1780072
:1053f400ae009000827078001e4fe8001e407800d6
:10540400ea4f5000f5ff3600720047008000780034
:105414003e089000cdf807000004e00004003a00c4
:1054240090c0b30040e8b7000080eb0001003700f3
:105434000000eb000080fa00000006000e00fa00f5
:1054440050079800610798000000eb00000f7800f7
:105454000000eb001007980015003700a1d02000d1
:105464001e00900000804000104078000004e0001e
:105474000c003200a1d020001e00900000804000eb
:105484008040eb00014878009e00900060032000fb
:105494000088b9008000780080c62000008f40009a
:1054a400060037001e0090000000e8001007980076
:1054b4001e009000e20f5000e8ff34001e00780048
:1054c4000000e00004003a0000c2b30040e8b70066
:1054d4000000eb00930137009e0078007c804000c0
:1054e4000041eb00800078005e0090007006070029
:1054f4000004e00009003a00a1d020001e00900042
:105504000080400011c0b3000148780020c1b300fe
:1055140040e8b7000000eb00820137006e00900005
:1055240010407800604798001e00780001db2000de
:10553400010878001e0178006000b800100198008e
:10554400210198001e0178006000b8003001980025
:10555400410198001e0078008000eb004110980083
:105564001e00780001022000611098008042800033
:1055740080189000701090001e017800701198003f
:105584000119980080428000a01890001018900023
:105594001e01780010199800211998009e007800c7
:1055a40040d42000e60107008041eb0012c0b300a4
:1055b40041d420001e007800baf107000000e0008a
:1055c400e1003a006e4090000080fb00710520006d
:1055d400810f50001400320071052000810f50002b
:1055e40007003c0011042000810f500045003200e8
:1055f40021052000810f5000b5003200cd00370096
:1056040021072000810f5000b100320071072000f3
:10561400810f50000400320011062000810f500059
:1056240038003200c30037001e007800401090009c
:10563400400798006800470012c0b300800078005b
:105644001e0078005bfe0700200798002e009000e3
:105654000000e00004013a00680047000041eb004c
:10566400800078001e0078003dfa070020079800ab
:105674002e0090000000e000fd003a0068004700a2
:1056840072c7b300800078001e0078007ef2070025
:10569400200798001e0078006010900070006000e1
:1056a4000000e00004003200f0c1b30040e8b7009d
:1056b400f00f2000200798002e0090000000e0006a
:1056c400ed003a00210020006011b8001e007800af
:1056d400a4070700200798006e0090000000e8006f
:1056e40090407800b0c2b30080cf5000e4003a008c
:1056f4009e007800310890000010a000b0089800c7
:10570400f40037001e007800a008900010089000f4
:10571400e00f5000e08f5800310032001e00780086
:1057240040109000400798006800470072c7b3001b
:10573400800078001e00780053f2070020079800cc
:105744001e00780060109000700060000000e0000f
:1057540004003200f0c1b30040e8b700f00f2000ad
:10576400200798002e0090000000e000c6003a00d8
:10577400210020006011b8001e007800790707009e
:10578400200798002e0090000000e0000300320083
:10579400a0c1b30040e8b700060037001e0078003f
:1057a400c0009000300090000001be0000db20002b
:1057b400a60807006e0090000000e8009040780002
:1057c400b0c2b30080cf5000b1003a009e00780010
:1057d400310890000010a000b0089800bd00370008
:1057e4001e007800401090004007980068004700b1
:1057f40012c0b300800078001e007800edfd0700a1
:10580400200798002e0090000000e000a2003a005b
:10581400680047000041eb00800078001e0078001b
:10582400cff90700200798002e0090000000e00048
:105834009b003a006800470072c7b30080007800fc
:105844001e00780010f20700200798001e00780060
:1058540060109000700060000000e000040032005e
:10586400f0c1b30040e8b700f00f20002007980013
:105874002e0090000000e0008b003a002100200080
:105884006011b8001e007800360707002007980052
:105894002e0090000000e00002003200a0c1b3001e
:1058a40040e8b7006e0090000000e80090407800e7
:1058b400b0c2b30080cf50007d003a009e00780053
:1058c400310890000010a000b00898008100370053
:1058d4001e007800401090004007980068004700c0
:1058e40022c7b300800078001e007800e6f10700ac
:1058f400200798006e0090000000e80090407800b7
:10590400b0c2b30080cf50006b003a001e00780094
:1059140060109000700060000000e00068003a0031
:105924009e007800310890000000a000b0089800a4
:1059340068003700f0c1b30040e8b700f00f200062
:10594400200798006300370041d420001e0078002f
:10595400fb000700ee40900070c7b30080cf5000fa
:105964000c003200ee40900070c5b30080cf5000b0
:1059740008003200ee40900010c6b30080cf500003
:1059840004003200ee40900010c4b30080cf5000f9
:1059940032003a000000eb0040079800680047001e
:1059a4000041eb00800078001e0078006cf90700cd
:1059b400200798002e0090000000e00045003a0007
:1059c4006800470072c7b300800078001e007800aa
:1059d400adf10700200798001e00780060109000c9
:1059e400700060000000e00004003200f0c1b30069
:1059f40040e8b700f00f2000200798002e00900028
:105a04000000e00030003a00210020006011b800de
:105a14001e007800d3060700200798002e0090008f
:105a24000000e00002003200a0c1b30040e8b7006b
:105a34006e0090000000e80090407800b0c2b3000f
:105a440080cf500022003a009e0078003108900078
:105a54000010a000b00898001e003700b00020001d
:105a6400200798001b0037000000000019003700d1
:105a74000000000017003700000000001500370088
:105a84000000000013003700000000001100370080
:105a9400000000000f003700000000000d00370078
:105aa400000000000b003700000000000900370070
:105ab4000000000007003700000000000500370068
:105ac4000000000003003700000000000100370060
:105ad400000000003c2307000004e0000400320042
:105ae4009e007800310890000000a100b0089800e2
